{
  "contractName": "Campaign",
  "abi": [
    {
      "inputs": [
        {
          "internalType": "uint256",
          "name": "minimum",
          "type": "uint256"
        },
        {
          "internalType": "address",
          "name": "creator",
          "type": "address"
        }
      ],
      "stateMutability": "nonpayable",
      "type": "constructor"
    },
    {
      "inputs": [
        {
          "internalType": "address",
          "name": "",
          "type": "address"
        }
      ],
      "name": "approvers",
      "outputs": [
        {
          "internalType": "bool",
          "name": "",
          "type": "bool"
        }
      ],
      "stateMutability": "view",
      "type": "function"
    },
    {
      "inputs": [],
      "name": "approversCount",
      "outputs": [
        {
          "internalType": "uint256",
          "name": "",
          "type": "uint256"
        }
      ],
      "stateMutability": "view",
      "type": "function"
    },
    {
      "inputs": [],
      "name": "manager",
      "outputs": [
        {
          "internalType": "address payable",
          "name": "",
          "type": "address"
        }
      ],
      "stateMutability": "view",
      "type": "function"
    },
    {
      "inputs": [],
      "name": "minimumContribution",
      "outputs": [
        {
          "internalType": "uint256",
          "name": "",
          "type": "uint256"
        }
      ],
      "stateMutability": "view",
      "type": "function"
    },
    {
      "inputs": [
        {
          "internalType": "uint256",
          "name": "",
          "type": "uint256"
        }
      ],
      "name": "requests",
      "outputs": [
        {
          "internalType": "string",
          "name": "description",
          "type": "string"
        },
        {
          "internalType": "uint256",
          "name": "value",
          "type": "uint256"
        },
        {
          "internalType": "address payable",
          "name": "recepient",
          "type": "address"
        },
        {
          "internalType": "bool",
          "name": "complete",
          "type": "bool"
        },
        {
          "internalType": "uint256",
          "name": "approvalCount",
          "type": "uint256"
        }
      ],
      "stateMutability": "view",
      "type": "function"
    },
    {
      "inputs": [],
      "name": "contribute",
      "outputs": [],
      "stateMutability": "payable",
      "type": "function"
    },
    {
      "inputs": [
        {
          "internalType": "string",
          "name": "description",
          "type": "string"
        },
        {
          "internalType": "uint256",
          "name": "value",
          "type": "uint256"
        },
        {
          "internalType": "address payable",
          "name": "recepient",
          "type": "address"
        }
      ],
      "name": "createRequest",
      "outputs": [],
      "stateMutability": "nonpayable",
      "type": "function"
    },
    {
      "inputs": [
        {
          "internalType": "uint256",
          "name": "index",
          "type": "uint256"
        }
      ],
      "name": "approveRequest",
      "outputs": [],
      "stateMutability": "nonpayable",
      "type": "function"
    },
    {
      "inputs": [
        {
          "internalType": "uint256",
          "name": "index",
          "type": "uint256"
        }
      ],
      "name": "finalizeRequest",
      "outputs": [],
      "stateMutability": "payable",
      "type": "function"
    },
    {
      "inputs": [],
      "name": "getSummary",
      "outputs": [
        {
          "internalType": "uint256",
          "name": "",
          "type": "uint256"
        },
        {
          "internalType": "uint256",
          "name": "",
          "type": "uint256"
        },
        {
          "internalType": "uint256",
          "name": "",
          "type": "uint256"
        },
        {
          "internalType": "uint256",
          "name": "",
          "type": "uint256"
        },
        {
          "internalType": "address",
          "name": "",
          "type": "address"
        }
      ],
      "stateMutability": "view",
      "type": "function"
    },
    {
      "inputs": [],
      "name": "getRequestsCount",
      "outputs": [
        {
          "internalType": "uint256",
          "name": "",
          "type": "uint256"
        }
      ],
      "stateMutability": "view",
      "type": "function"
    },
    {
      "inputs": [],
      "name": "endCampaign",
      "outputs": [],
      "stateMutability": "nonpayable",
      "type": "function"
    }
  ],
  "bytecode": "0x608060405234801561001057600080fd5b50604051610b0f380380610b0f83398101604081905261002f91610057565b600180546001600160a01b0319166001600160a01b0392909216919091179055600255610094565b6000806040838503121561006a57600080fd5b825160208401519092506001600160a01b038116811461008957600080fd5b809150509250929050565b610a6c806100a36000396000f3fe6080604052600436106100a75760003560e01c806381d12c581161006457806381d12c58146101b957806382fde093146101ea5780638a9cfd5514610200578063937e09b114610220578063d7bb99ba14610236578063d7d1bbdb1461023e57600080fd5b806303441006146100ac5780630a144391146100c15780633410452a146101065780634051ddac14610125578063481c6a751461016c57806371aac7f9146101a4575b600080fd5b6100bf6100ba3660046106d3565b61025e565b005b3480156100cd57600080fd5b506100f16100dc366004610704565b60036020526000908152604090205460ff1681565b60405190151581526020015b60405180910390f35b34801561011257600080fd5b506000545b6040519081526020016100fd565b34801561013157600080fd5b506002546000546004546001546040805194855247602086015284019290925260608301526001600160a01b0316608082015260a0016100fd565b34801561017857600080fd5b5060015461018c906001600160a01b031681565b6040516001600160a01b0390911681526020016100fd565b3480156101b057600080fd5b506100bf6103b5565b3480156101c557600080fd5b506101d96101d43660046106d3565b610414565b6040516100fd959493929190610728565b3480156101f657600080fd5b5061011760045481565b34801561020c57600080fd5b506100bf61021b3660046107c4565b6104f3565b34801561022c57600080fd5b5061011760025481565b6100bf610580565b34801561024a57600080fd5b506100bf6102593660046106d3565b6105be565b6001546001600160a01b0316331461027557600080fd5b60008082815481106102895761028961088f565b906000526020600020906005020190508060020160149054906101000a900460ff16156102fd5760405162461bcd60e51b815260206004820152601d60248201527f5265717565737420697320616c72656164792066696e616c697a65642e00000060448201526064015b60405180910390fd5b600260045461030c91906108a5565b81600301541161035e5760405162461bcd60e51b815260206004820152601f60248201527f486173206e6f74206d6f7265207468616e2035302520617070726f76616c2e0060448201526064016102f4565b60028101805460ff60a01b198116600160a01b1790915560018201546040516001600160a01b039092169181156108fc0291906000818181858888f193505050501580156103b0573d6000803e3d6000fd5b505050565b6001546001600160a01b031633146103cc57600080fd5b6001546040516001600160a01b03909116904780156108fc02916000818181858888f19350505050158015610405573d6000803e3d6000fd5b506001546001600160a01b0316ff5b6000818154811061042457600080fd5b9060005260206000209060050201600091509050806000018054610447906108c7565b80601f0160208091040260200160405190810160405280929190818152602001828054610473906108c7565b80156104c05780601f10610495576101008083540402835291602001916104c0565b820191906000526020600020905b8154815290600101906020018083116104a357829003601f168201915b5050505060018301546002840154600390940154929390926001600160a01b0382169250600160a01b90910460ff169085565b6001546001600160a01b0316331461050a57600080fd5b600080546001810180835582805290919081908390811061052d5761052d61088f565b6000918252602090912060059091020190508061054a868261094f565b506001810193909355506002820180546001600160a81b0319166001600160a01b03909216919091179055600060039091015550565b60025434101561058f57600080fd5b336000908152600360205260408120805460ff1916600117905560048054916105b783610a0f565b9190505550565b60008082815481106105d2576105d261088f565b6000918252602080832033845260039091526040909220546005909102909101915060ff1661063c5760405162461bcd60e51b815260206004820152601660248201527529b437bab6321031329031b7b73a3934b13aba37b91760511b60448201526064016102f4565b33600090815260048201602052604090205460ff161561069e5760405162461bcd60e51b815260206004820181905260248201527f5265717565737420616c726561647920617070726f76656420627920796f752e60448201526064016102f4565b3360009081526004820160205260408120805460ff19166001179055600382018054916106ca83610a0f565b91905055505050565b6000602082840312156106e557600080fd5b5035919050565b6001600160a01b038116811461070157600080fd5b50565b60006020828403121561071657600080fd5b8135610721816106ec565b9392505050565b60a08152600086518060a084015260005b81811015610756576020818a0181015160c0868401015201610739565b50600060c0828501015260c0601f19601f83011684010191505085602083015261078b60408301866001600160a01b03169052565b9215156060820152608001529392505050565b634e487b7160e01b600052604160045260246000fd5b80356107bf816106ec565b919050565b6000806000606084860312156107d957600080fd5b833567ffffffffffffffff808211156107f157600080fd5b818601915086601f83011261080557600080fd5b8135818111156108175761081761079e565b604051601f8201601f19908116603f0116810190838211818310171561083f5761083f61079e565b8160405282815289602084870101111561085857600080fd5b82602086016020830137600060208483010152809750505050505060208401359150610886604085016107b4565b90509250925092565b634e487b7160e01b600052603260045260246000fd5b6000826108c257634e487b7160e01b600052601260045260246000fd5b500490565b600181811c908216806108db57607f821691505b6020821081036108fb57634e487b7160e01b600052602260045260246000fd5b50919050565b601f8211156103b057600081815260208120601f850160051c810160208610156109285750805b601f850160051c820191505b8181101561094757828155600101610934565b505050505050565b815167ffffffffffffffff8111156109695761096961079e565b61097d8161097784546108c7565b84610901565b602080601f8311600181146109b2576000841561099a5750858301515b600019600386901b1c1916600185901b178555610947565b600085815260208120601f198616915b828110156109e1578886015182559484019460019091019084016109c2565b50858210156109ff5787850151600019600388901b60f8161c191681555b5050505050600190811b01905550565b600060018201610a2f57634e487b7160e01b600052601160045260246000fd5b506001019056fea26469706673582212206f7531bd52950c31c156935b7589935f8f9b6cb47360d60a8e03bf21aa7072c464736f6c63430008110033",
  "immutableReferences": {},
  "source": "// SPDX-License-Identifier: MIT\npragma solidity ^0.8.0;\n\ncontract CampaignFactory {\n    address[] public deployedCampaigns;\n\n    function createCampaign(uint minimum) public{\n        //@TypeError: Type contract Campaign is not implicitly convertible to expected type address.\n        address newCampaign = address(new Campaign(minimum, msg.sender));\n        deployedCampaigns.push(newCampaign);\n    }\n\n    function getDeployedCampaigns() public view returns (address[] memory) {\n        return deployedCampaigns;\n    }\n}\n\ncontract Campaign {\n    struct Request {\n       string description;\n       uint value;\n       address payable recepient;\n       bool complete; \n       uint approvalCount;\n       mapping (address => bool) approvals;\n    }\n\n    Request[] public requests;\n    //@ PAYABLE ONLY TO: WRITE DESTRUCT FOR SAVING ETHERS FROM METAMASK\n    address payable public manager;\n    uint public minimumContribution;\n    mapping (address => bool) public approvers;\n    uint public approversCount;\n\n    // declare modifiers above constructor\n    modifier restricted() {\n        require (msg.sender == manager);\n        _;\n    }\n    constructor (uint minimum, address creator) {\n        manager = payable(creator);\n        minimumContribution = minimum;\n    } \n\n    function contribute() public payable {\n        require (msg.value >= minimumContribution);\n        approvers[msg.sender] = true;\n        approversCount++;\n    }\n\n    function createRequest (string memory description, uint value, address payable recepient) public restricted {\n        //@TypeError: Type struct Campaign.Request is only valid in storage because it contains a (nested) mapping.\n        // Request storage newRequest; \n        // the following is giving error\n        // Request({\n        //         description: description,\n        //         value: value,\n        //         recepient: recepient,\n        //         complete: false,\n        //         approvalCount: 0\n        // });\n\n        // newRequest.description = description;\n        // newRequest.value = value;\n        // newRequest.recepient = recepient;\n        // newRequest.complete = false;\n        // newRequest.approvalCount = 0;\n\n        //@TypeError: Storage arrays with nested mappings do not support .push().\n        // requests.push(newRequest);\n        // to resolve above error\n\n        //@TypeError: Data location can only be specified for array, struct or mapping types, but \"storage\" was given.\n        uint length = requests.length;\n        requests.push();\n        Request storage newRequest_1 = requests[length];\n\n        newRequest_1.description = description;\n        newRequest_1.value = value;\n        newRequest_1.recepient = recepient;\n        newRequest_1.complete = false;\n        newRequest_1.approvalCount = 0;\n        // requests[length++] = newRequest_1;\n    } \n    //@ how to pass array or another refernce type data structure as parameter to function for changing it \n    // function changeArray(int[] storage arr) public pure{\n    //     arr[0]= 20;\n    // }\n\n    function approveRequest(uint index) public {\n        Request storage request = requests[index];\n\n        require (approvers[msg.sender], \"Should be contributor.\");\n\n        // @have a look\n        require (!request.approvals[msg.sender], \"Request already approved by you.\");\n\n        request.approvals[msg.sender] = true;\n        request.approvalCount++;\n    }\n\n    function finalizeRequest(uint index) public payable restricted {\n        Request storage request = requests[index];\n        require(!request.complete, \"Request is already finalized.\");\n        require(request.approvalCount > (approversCount / 2), \"Has not more than 50% approval.\");\n        request.complete = true;\n        request.recepient.transfer(request.value);\n    }\n\n    function getSummary() public view returns (uint, uint, uint, uint, address) {\n        return (\n            minimumContribution,\n            address(this).balance,\n            requests.length,\n            approversCount,\n            manager \n        );  \n    }\n\n    function getRequestsCount() public view returns (uint){\n        return requests.length;\n    }\n\n    function endCampaign() public restricted {\n        manager.transfer(address(this).balance);\n        selfdestruct(manager);\n    }\n\n}\n\n",
  "sourcePath": "/home/aamir/AL/dev/kickStarter/contracts/Campaign.sol",
  "compiler": {
    "name": "solc",
    "version": "0.8.17+commit.8df45f5f.Emscripten.clang"
  },
  "schemaVersion": "3.4.10",
  "updatedAt": "2022-10-11T14:28:29.138Z",
  "devdoc": {
    "kind": "dev",
    "methods": {},
    "version": 1
  },
  "userdoc": {
    "kind": "user",
    "methods": {},
    "version": 1
  }
}