{
  "contractName": "Campaign",
  "abi": [
    {
      "inputs": [
        {
          "internalType": "uint256",
          "name": "minimum",
          "type": "uint256"
        },
        {
          "internalType": "address",
          "name": "creator",
          "type": "address"
        }
      ],
      "stateMutability": "nonpayable",
      "type": "constructor"
    },
    {
      "inputs": [
        {
          "internalType": "address",
          "name": "",
          "type": "address"
        }
      ],
      "name": "approvers",
      "outputs": [
        {
          "internalType": "bool",
          "name": "",
          "type": "bool"
        }
      ],
      "stateMutability": "view",
      "type": "function"
    },
    {
      "inputs": [],
      "name": "approversCount",
      "outputs": [
        {
          "internalType": "uint256",
          "name": "",
          "type": "uint256"
        }
      ],
      "stateMutability": "view",
      "type": "function"
    },
    {
      "inputs": [],
      "name": "manager",
      "outputs": [
        {
          "internalType": "address payable",
          "name": "",
          "type": "address"
        }
      ],
      "stateMutability": "view",
      "type": "function"
    },
    {
      "inputs": [],
      "name": "minimumContribution",
      "outputs": [
        {
          "internalType": "uint256",
          "name": "",
          "type": "uint256"
        }
      ],
      "stateMutability": "view",
      "type": "function"
    },
    {
      "inputs": [
        {
          "internalType": "uint256",
          "name": "",
          "type": "uint256"
        }
      ],
      "name": "requests",
      "outputs": [
        {
          "internalType": "string",
          "name": "description",
          "type": "string"
        },
        {
          "internalType": "uint256",
          "name": "value",
          "type": "uint256"
        },
        {
          "internalType": "address payable",
          "name": "recepient",
          "type": "address"
        },
        {
          "internalType": "bool",
          "name": "complete",
          "type": "bool"
        },
        {
          "internalType": "uint256",
          "name": "approvalCount",
          "type": "uint256"
        }
      ],
      "stateMutability": "view",
      "type": "function"
    },
    {
      "inputs": [],
      "name": "contribute",
      "outputs": [],
      "stateMutability": "payable",
      "type": "function"
    },
    {
      "inputs": [
        {
          "internalType": "string",
          "name": "description",
          "type": "string"
        },
        {
          "internalType": "uint256",
          "name": "value",
          "type": "uint256"
        },
        {
          "internalType": "address payable",
          "name": "recepient",
          "type": "address"
        }
      ],
      "name": "createRequest",
      "outputs": [],
      "stateMutability": "nonpayable",
      "type": "function"
    },
    {
      "inputs": [
        {
          "internalType": "uint256",
          "name": "index",
          "type": "uint256"
        }
      ],
      "name": "approveRequest",
      "outputs": [],
      "stateMutability": "nonpayable",
      "type": "function"
    },
    {
      "inputs": [
        {
          "internalType": "uint256",
          "name": "index",
          "type": "uint256"
        }
      ],
      "name": "finalizeRequest",
      "outputs": [],
      "stateMutability": "payable",
      "type": "function"
    },
    {
      "inputs": [],
      "name": "endCampaign",
      "outputs": [],
      "stateMutability": "nonpayable",
      "type": "function"
    }
  ],
  "bytecode": "0x608060405234801561001057600080fd5b50604051610aa1380380610aa183398101604081905261002f91610057565b600180546001600160a01b0319166001600160a01b0392909216919091179055600255610094565b6000806040838503121561006a57600080fd5b825160208401519092506001600160a01b038116811461008957600080fd5b809150509250929050565b6109fe806100a36000396000f3fe6080604052600436106100915760003560e01c806382fde0931161005957806382fde0931461016e5780638a9cfd5514610192578063937e09b1146101b2578063d7bb99ba146101c8578063d7d1bbdb146101d057600080fd5b806303441006146100965780630a144391146100ab578063481c6a75146100f057806371aac7f91461012857806381d12c581461013d575b600080fd5b6100a96100a4366004610665565b6101f0565b005b3480156100b757600080fd5b506100db6100c6366004610696565b60036020526000908152604090205460ff1681565b60405190151581526020015b60405180910390f35b3480156100fc57600080fd5b50600154610110906001600160a01b031681565b6040516001600160a01b0390911681526020016100e7565b34801561013457600080fd5b506100a9610347565b34801561014957600080fd5b5061015d610158366004610665565b6103a6565b6040516100e79594939291906106ba565b34801561017a57600080fd5b5061018460045481565b6040519081526020016100e7565b34801561019e57600080fd5b506100a96101ad366004610756565b610485565b3480156101be57600080fd5b5061018460025481565b6100a9610512565b3480156101dc57600080fd5b506100a96101eb366004610665565b610550565b6001546001600160a01b0316331461020757600080fd5b600080828154811061021b5761021b610821565b906000526020600020906005020190508060020160149054906101000a900460ff161561028f5760405162461bcd60e51b815260206004820152601d60248201527f5265717565737420697320616c72656164792066696e616c697a65642e00000060448201526064015b60405180910390fd5b600260045461029e9190610837565b8160030154116102f05760405162461bcd60e51b815260206004820152601f60248201527f486173206e6f74206d6f7265207468616e2035302520617070726f76616c2e006044820152606401610286565b60028101805460ff60a01b198116600160a01b1790915560018201546040516001600160a01b039092169181156108fc0291906000818181858888f19350505050158015610342573d6000803e3d6000fd5b505050565b6001546001600160a01b0316331461035e57600080fd5b6001546040516001600160a01b03909116904780156108fc02916000818181858888f19350505050158015610397573d6000803e3d6000fd5b506001546001600160a01b0316ff5b600081815481106103b657600080fd5b90600052602060002090600502016000915090508060000180546103d990610859565b80601f016020809104026020016040519081016040528092919081815260200182805461040590610859565b80156104525780601f1061042757610100808354040283529160200191610452565b820191906000526020600020905b81548152906001019060200180831161043557829003601f168201915b5050505060018301546002840154600390940154929390926001600160a01b0382169250600160a01b90910460ff169085565b6001546001600160a01b0316331461049c57600080fd5b60008054600181018083558280529091908190839081106104bf576104bf610821565b600091825260209091206005909102019050806104dc86826108e1565b506001810193909355506002820180546001600160a81b0319166001600160a01b03909216919091179055600060039091015550565b60025434101561052157600080fd5b336000908152600360205260408120805460ff191660011790556004805491610549836109a1565b9190505550565b600080828154811061056457610564610821565b6000918252602080832033845260039091526040909220546005909102909101915060ff166105ce5760405162461bcd60e51b815260206004820152601660248201527529b437bab6321031329031b7b73a3934b13aba37b91760511b6044820152606401610286565b33600090815260048201602052604090205460ff16156106305760405162461bcd60e51b815260206004820181905260248201527f5265717565737420616c726561647920617070726f76656420627920796f752e6044820152606401610286565b3360009081526004820160205260408120805460ff191660011790556003820180549161065c836109a1565b91905055505050565b60006020828403121561067757600080fd5b5035919050565b6001600160a01b038116811461069357600080fd5b50565b6000602082840312156106a857600080fd5b81356106b38161067e565b9392505050565b60a08152600086518060a084015260005b818110156106e8576020818a0181015160c08684010152016106cb565b50600060c0828501015260c0601f19601f83011684010191505085602083015261071d60408301866001600160a01b03169052565b9215156060820152608001529392505050565b634e487b7160e01b600052604160045260246000fd5b80356107518161067e565b919050565b60008060006060848603121561076b57600080fd5b833567ffffffffffffffff8082111561078357600080fd5b818601915086601f83011261079757600080fd5b8135818111156107a9576107a9610730565b604051601f8201601f19908116603f011681019083821181831017156107d1576107d1610730565b816040528281528960208487010111156107ea57600080fd5b8260208601602083013760006020848301015280975050505050506020840135915061081860408501610746565b90509250925092565b634e487b7160e01b600052603260045260246000fd5b60008261085457634e487b7160e01b600052601260045260246000fd5b500490565b600181811c9082168061086d57607f821691505b60208210810361088d57634e487b7160e01b600052602260045260246000fd5b50919050565b601f82111561034257600081815260208120601f850160051c810160208610156108ba5750805b601f850160051c820191505b818110156108d9578281556001016108c6565b505050505050565b815167ffffffffffffffff8111156108fb576108fb610730565b61090f816109098454610859565b84610893565b602080601f831160018114610944576000841561092c5750858301515b600019600386901b1c1916600185901b1785556108d9565b600085815260208120601f198616915b8281101561097357888601518255948401946001909101908401610954565b50858210156109915787850151600019600388901b60f8161c191681555b5050505050600190811b01905550565b6000600182016109c157634e487b7160e01b600052601160045260246000fd5b506001019056fea2646970667358221220d3d90a397615e94cb548c99b7e9977a605b6cdac2a37d1882f559ab70ac87a2364736f6c63430008110033",
  "immutableReferences": {},
  "source": "// SPDX-License-Identifier: MIT\npragma solidity ^0.8.0;\n\ncontract CampaignFactory {\n    address[] public deployedCampaigns;\n\n    function createCampaign(uint minimum) public{\n        //@TypeError: Type contract Campaign is not implicitly convertible to expected type address.\n        address newCampaign = address(new Campaign(minimum, msg.sender));\n        deployedCampaigns.push(newCampaign);\n    }\n\n    function getDeployedCampaigns() public view returns (address[] memory) {\n        return deployedCampaigns;\n    }\n}\n\ncontract Campaign {\n    struct Request {\n       string description;\n       uint value;\n       address payable recepient;\n       bool complete; \n       uint approvalCount;\n       mapping (address => bool) approvals;\n    }\n\n    Request[] public requests;\n    //@ PAYABLE ONLY TO: WRITE DESTRUCT FOR SAVING ETHERS FROM METAMASK\n    address payable public manager;\n    uint public minimumContribution;\n    mapping (address => bool) public approvers;\n    uint public approversCount;\n\n    // declare modifiers above constructor\n    modifier restricted() {\n        require (msg.sender == manager);\n        _;\n    }\n    constructor (uint minimum, address creator) {\n        manager = payable(creator);\n        minimumContribution = minimum;\n    } \n\n    function contribute() public payable {\n        require (msg.value >= minimumContribution);\n        approvers[msg.sender] = true;\n        approversCount++;\n    }\n\n    function createRequest (string memory description, uint value, address payable recepient) public restricted {\n        //@TypeError: Type struct Campaign.Request is only valid in storage because it contains a (nested) mapping.\n        // Request storage newRequest; \n        // the following is giving error\n        // Request({\n        //         description: description,\n        //         value: value,\n        //         recepient: recepient,\n        //         complete: false,\n        //         approvalCount: 0\n        // });\n\n        // newRequest.description = description;\n        // newRequest.value = value;\n        // newRequest.recepient = recepient;\n        // newRequest.complete = false;\n        // newRequest.approvalCount = 0;\n\n        //@TypeError: Storage arrays with nested mappings do not support .push().\n        // requests.push(newRequest);\n        // to resolve above error\n\n        //@TypeError: Data location can only be specified for array, struct or mapping types, but \"storage\" was given.\n        uint length = requests.length;\n        requests.push();\n        Request storage newRequest_1 = requests[length];\n\n        newRequest_1.description = description;\n        newRequest_1.value = value;\n        newRequest_1.recepient = recepient;\n        newRequest_1.complete = false;\n        newRequest_1.approvalCount = 0;\n        // requests[length++] = newRequest_1;\n    } \n    //@ how to pass array or another refernce type data structure as parameter to function for changing it \n    // function changeArray(int[] storage arr) public pure{\n    //     arr[0]= 20;\n    // }\n\n    function approveRequest(uint index) public {\n        Request storage request = requests[index];\n\n        require (approvers[msg.sender], \"Should be contributor.\");\n\n        // @have a look\n        require (!request.approvals[msg.sender], \"Request already approved by you.\");\n\n        request.approvals[msg.sender] = true;\n        request.approvalCount++;\n    }\n\n    function finalizeRequest(uint index) public payable restricted {\n        Request storage request = requests[index];\n        require(!request.complete, \"Request is already finalized.\");\n        require(request.approvalCount > (approversCount / 2), \"Has not more than 50% approval.\");\n        request.complete = true;\n        request.recepient.transfer(request.value);\n    }\n\n    function endCampaign() public restricted {\n        manager.transfer(address(this).balance);\n        selfdestruct(manager);\n    }\n\n}\n\n",
  "sourcePath": "/home/aamir/AL/dev/kickStarter/contracts/Campaign.sol",
  "compiler": {
    "name": "solc",
    "version": "0.8.17+commit.8df45f5f.Emscripten.clang"
  },
  "schemaVersion": "3.4.10",
  "updatedAt": "2022-10-05T14:06:17.336Z",
  "devdoc": {
    "kind": "dev",
    "methods": {},
    "version": 1
  },
  "userdoc": {
    "kind": "user",
    "methods": {},
    "version": 1
  }
}