{
  "contractName": "Lottery",
  "abi": [
    {
      "inputs": [],
      "stateMutability": "nonpayable",
      "type": "constructor"
    },
    {
      "inputs": [],
      "name": "comparisonFool",
      "outputs": [
        {
          "internalType": "uint256",
          "name": "",
          "type": "uint256"
        }
      ],
      "stateMutability": "view",
      "type": "function"
    },
    {
      "inputs": [
        {
          "internalType": "uint256",
          "name": "",
          "type": "uint256"
        }
      ],
      "name": "fools",
      "outputs": [
        {
          "internalType": "address",
          "name": "",
          "type": "address"
        }
      ],
      "stateMutability": "view",
      "type": "function"
    },
    {
      "inputs": [],
      "name": "manager",
      "outputs": [
        {
          "internalType": "address",
          "name": "",
          "type": "address"
        }
      ],
      "stateMutability": "view",
      "type": "function"
    },
    {
      "inputs": [],
      "name": "enter",
      "outputs": [],
      "stateMutability": "payable",
      "type": "function"
    }
  ],
  "bytecode": "0x608060405234801561001057600080fd5b50600080546001600160a01b03191633179055610282806100326000396000f3fe60806040526004361061003f5760003560e01c8063429cf2c914610044578063481c6a751461006d578063b2203a61146100a5578063e97dcb62146100c5575b600080fd5b34801561005057600080fd5b5061005a60035481565b6040519081526020015b60405180910390f35b34801561007957600080fd5b5060005461008d906001600160a01b031681565b6040516001600160a01b039091168152602001610064565b3480156100b157600080fd5b5061008d6100c03660046101f2565b6100cf565b6100cd6100f9565b005b600181815481106100df57600080fd5b6000918252602090912001546001600160a01b0316905081565b6001546000036101f05760006714d1120d7b16000090506002600060016000815481106101285761012861020b565b60009182526020808320909101546001600160a01b031683528201929092526040019020546101579082610221565b600355670de0b6b3a76400003410156101ad5760405162461bcd60e51b81526020600482015260146024820152732b30b63ab29034b9903737ba10189032ba3432b960611b604482015260640160405180910390fd5b506001805480820182556000919091527fb10e2d527612073b26eecdfd717e6a320cf44b4afac2b0732d9fcbe2b7fa0cf60180546001600160a01b031916331790555b565b60006020828403121561020457600080fd5b5035919050565b634e487b7160e01b600052603260045260246000fd5b808202811582820484141761024657634e487b7160e01b600052601160045260246000fd5b9291505056fea264697066735822122002b651ba03ab58c26c9a8104f85d2f0cd7fac9ca161f10b9d8b7638bd12eb8ff64736f6c63430008110033",
  "immutableReferences": {},
  "source": "// SPDX-License-Identifier: MIT\npragma solidity ^0.8.7;\n\ncontract Lottery {\n    address public manager;\n    address[] public fools;\n    mapping (address => uint) balance;\n    uint public comparisonFool;\n    \n    constructor() {\n        manager = msg.sender;\n    }\n    \n    function enter() public payable {\n        if(fools.length == 0) {\n            uint comparison = 1000000000000000000 + 500000000000000000;\n            comparisonFool = comparison * balance[fools[0]];\n            require(msg.value >= 1 ether, \"Value is not 1 ether\");\n            fools.push(msg.sender);\n        } \n        // else {\n        //     require (msg.value >= comparisonFool);\n        //     fools.push(msg.sender);\n        //     //@declare king\n        // }\n        \n    }\n    \n    // function pickKing() public restricted {\n    //     //@ decide value to send\n    //     fools[0].transfer(this.balance);\n    //     fools = new address[](0);\n    // }\n    \n    modifier restricted() {\n        require(msg.sender == manager);\n        _;\n    }\n    \n    // function getFools() public view returns (address[]) {\n    //     return fools;\n    // }\n}   ",
  "sourcePath": "/home/aamir/AL/dev/kickStarter/contracts/King.sol",
  "compiler": {
    "name": "solc",
    "version": "0.8.17+commit.8df45f5f.Emscripten.clang"
  },
  "schemaVersion": "3.4.10",
  "updatedAt": "2022-09-29T14:29:11.765Z",
  "devdoc": {
    "kind": "dev",
    "methods": {},
    "version": 1
  },
  "userdoc": {
    "kind": "user",
    "methods": {},
    "version": 1
  }
}